{
  "_format": "hh-sol-artifact-1",
  "contractName": "Auction",
  "sourceName": "src/contracts/Auction.sol",
  "abi": [
    {
      "inputs": [
        {
          "internalType": "uint256",
          "name": "_royaltyFee",
          "type": "uint256"
        }
      ],
      "stateMutability": "nonpayable",
      "type": "constructor"
    },
    {
      "anonymous": false,
      "inputs": [
        {
          "indexed": true,
          "internalType": "address",
          "name": "owner",
          "type": "address"
        },
        {
          "indexed": true,
          "internalType": "address",
          "name": "approved",
          "type": "address"
        },
        {
          "indexed": true,
          "internalType": "uint256",
          "name": "tokenId",
          "type": "uint256"
        }
      ],
      "name": "Approval",
      "type": "event"
    },
    {
      "anonymous": false,
      "inputs": [
        {
          "indexed": true,
          "internalType": "address",
          "name": "owner",
          "type": "address"
        },
        {
          "indexed": true,
          "internalType": "address",
          "name": "operator",
          "type": "address"
        },
        {
          "indexed": false,
          "internalType": "bool",
          "name": "approved",
          "type": "bool"
        }
      ],
      "name": "ApprovalForAll",
      "type": "event"
    },
    {
      "anonymous": false,
      "inputs": [
        {
          "indexed": true,
          "internalType": "uint256",
          "name": "tokenId",
          "type": "uint256"
        },
        {
          "indexed": false,
          "internalType": "address",
          "name": "seller",
          "type": "address"
        },
        {
          "indexed": false,
          "internalType": "address",
          "name": "owner",
          "type": "address"
        },
        {
          "indexed": false,
          "internalType": "uint256",
          "name": "price",
          "type": "uint256"
        },
        {
          "indexed": false,
          "internalType": "bool",
          "name": "sold",
          "type": "bool"
        }
      ],
      "name": "AuctionItemCreated",
      "type": "event"
    },
    {
      "anonymous": false,
      "inputs": [
        {
          "indexed": true,
          "internalType": "address",
          "name": "from",
          "type": "address"
        },
        {
          "indexed": true,
          "internalType": "address",
          "name": "to",
          "type": "address"
        },
        {
          "indexed": true,
          "internalType": "uint256",
          "name": "tokenId",
          "type": "uint256"
        }
      ],
      "name": "Transfer",
      "type": "event"
    },
    {
      "inputs": [
        {
          "internalType": "address",
          "name": "to",
          "type": "address"
        },
        {
          "internalType": "uint256",
          "name": "tokenId",
          "type": "uint256"
        }
      ],
      "name": "approve",
      "outputs": [],
      "stateMutability": "nonpayable",
      "type": "function"
    },
    {
      "inputs": [
        {
          "internalType": "address",
          "name": "owner",
          "type": "address"
        }
      ],
      "name": "balanceOf",
      "outputs": [
        {
          "internalType": "uint256",
          "name": "",
          "type": "uint256"
        }
      ],
      "stateMutability": "view",
      "type": "function"
    },
    {
      "inputs": [
        {
          "internalType": "uint256",
          "name": "tokenId",
          "type": "uint256"
        }
      ],
      "name": "buyAuctionedItem",
      "outputs": [],
      "stateMutability": "payable",
      "type": "function"
    },
    {
      "inputs": [
        {
          "internalType": "uint256",
          "name": "tokenId",
          "type": "uint256"
        },
        {
          "internalType": "uint256",
          "name": "price",
          "type": "uint256"
        }
      ],
      "name": "changePrice",
      "outputs": [],
      "stateMutability": "nonpayable",
      "type": "function"
    },
    {
      "inputs": [
        {
          "internalType": "uint256",
          "name": "tokenId",
          "type": "uint256"
        },
        {
          "internalType": "uint256",
          "name": "bid",
          "type": "uint256"
        }
      ],
      "name": "claimPrize",
      "outputs": [],
      "stateMutability": "nonpayable",
      "type": "function"
    },
    {
      "inputs": [
        {
          "internalType": "string",
          "name": "name",
          "type": "string"
        },
        {
          "internalType": "string",
          "name": "description",
          "type": "string"
        },
        {
          "internalType": "string",
          "name": "image",
          "type": "string"
        },
        {
          "internalType": "uint256",
          "name": "price",
          "type": "uint256"
        }
      ],
      "name": "createAuction",
      "outputs": [],
      "stateMutability": "payable",
      "type": "function"
    },
    {
      "inputs": [
        {
          "internalType": "uint256",
          "name": "tokenId",
          "type": "uint256"
        }
      ],
      "name": "getApproved",
      "outputs": [
        {
          "internalType": "address",
          "name": "",
          "type": "address"
        }
      ],
      "stateMutability": "view",
      "type": "function"
    },
    {
      "inputs": [
        {
          "internalType": "uint256",
          "name": "id",
          "type": "uint256"
        }
      ],
      "name": "getAuction",
      "outputs": [
        {
          "components": [
            {
              "internalType": "string",
              "name": "name",
              "type": "string"
            },
            {
              "internalType": "string",
              "name": "description",
              "type": "string"
            },
            {
              "internalType": "string",
              "name": "image",
              "type": "string"
            },
            {
              "internalType": "uint256",
              "name": "tokenId",
              "type": "uint256"
            },
            {
              "internalType": "address",
              "name": "seller",
              "type": "address"
            },
            {
              "internalType": "address",
              "name": "owner",
              "type": "address"
            },
            {
              "internalType": "address",
              "name": "winner",
              "type": "address"
            },
            {
              "internalType": "uint256",
              "name": "price",
              "type": "uint256"
            },
            {
              "internalType": "bool",
              "name": "sold",
              "type": "bool"
            },
            {
              "internalType": "bool",
              "name": "live",
              "type": "bool"
            },
            {
              "internalType": "bool",
              "name": "biddable",
              "type": "bool"
            },
            {
              "internalType": "uint256",
              "name": "bids",
              "type": "uint256"
            },
            {
              "internalType": "uint256",
              "name": "duration",
              "type": "uint256"
            }
          ],
          "internalType": "struct Auction.AuctionStruct",
          "name": "",
          "type": "tuple"
        }
      ],
      "stateMutability": "view",
      "type": "function"
    },
    {
      "inputs": [
        {
          "internalType": "uint256",
          "name": "tokenId",
          "type": "uint256"
        }
      ],
      "name": "getBidders",
      "outputs": [
        {
          "components": [
            {
              "internalType": "address",
              "name": "bidder",
              "type": "address"
            },
            {
              "internalType": "uint256",
              "name": "price",
              "type": "uint256"
            },
            {
              "internalType": "uint256",
              "name": "timestamp",
              "type": "uint256"
            },
            {
              "internalType": "bool",
              "name": "refunded",
              "type": "bool"
            },
            {
              "internalType": "bool",
              "name": "won",
              "type": "bool"
            }
          ],
          "internalType": "struct Auction.BidderStruct[]",
          "name": "",
          "type": "tuple[]"
        }
      ],
      "stateMutability": "view",
      "type": "function"
    },
    {
      "inputs": [],
      "name": "getClaimableAuctions",
      "outputs": [
        {
          "components": [
            {
              "internalType": "string",
              "name": "name",
              "type": "string"
            },
            {
              "internalType": "string",
              "name": "description",
              "type": "string"
            },
            {
              "internalType": "string",
              "name": "image",
              "type": "string"
            },
            {
              "internalType": "uint256",
              "name": "tokenId",
              "type": "uint256"
            },
            {
              "internalType": "address",
              "name": "seller",
              "type": "address"
            },
            {
              "internalType": "address",
              "name": "owner",
              "type": "address"
            },
            {
              "internalType": "address",
              "name": "winner",
              "type": "address"
            },
            {
              "internalType": "uint256",
              "name": "price",
              "type": "uint256"
            },
            {
              "internalType": "bool",
              "name": "sold",
              "type": "bool"
            },
            {
              "internalType": "bool",
              "name": "live",
              "type": "bool"
            },
            {
              "internalType": "bool",
              "name": "biddable",
              "type": "bool"
            },
            {
              "internalType": "uint256",
              "name": "bids",
              "type": "uint256"
            },
            {
              "internalType": "uint256",
              "name": "duration",
              "type": "uint256"
            }
          ],
          "internalType": "struct Auction.AuctionStruct[]",
          "name": "Auctions",
          "type": "tuple[]"
        }
      ],
      "stateMutability": "view",
      "type": "function"
    },
    {
      "inputs": [],
      "name": "getListingPrice",
      "outputs": [
        {
          "internalType": "uint256",
          "name": "",
          "type": "uint256"
        }
      ],
      "stateMutability": "view",
      "type": "function"
    },
    {
      "inputs": [],
      "name": "getLiveAuctions",
      "outputs": [
        {
          "components": [
            {
              "internalType": "string",
              "name": "name",
              "type": "string"
            },
            {
              "internalType": "string",
              "name": "description",
              "type": "string"
            },
            {
              "internalType": "string",
              "name": "image",
              "type": "string"
            },
            {
              "internalType": "uint256",
              "name": "tokenId",
              "type": "uint256"
            },
            {
              "internalType": "address",
              "name": "seller",
              "type": "address"
            },
            {
              "internalType": "address",
              "name": "owner",
              "type": "address"
            },
            {
              "internalType": "address",
              "name": "winner",
              "type": "address"
            },
            {
              "internalType": "uint256",
              "name": "price",
              "type": "uint256"
            },
            {
              "internalType": "bool",
              "name": "sold",
              "type": "bool"
            },
            {
              "internalType": "bool",
              "name": "live",
              "type": "bool"
            },
            {
              "internalType": "bool",
              "name": "biddable",
              "type": "bool"
            },
            {
              "internalType": "uint256",
              "name": "bids",
              "type": "uint256"
            },
            {
              "internalType": "uint256",
              "name": "duration",
              "type": "uint256"
            }
          ],
          "internalType": "struct Auction.AuctionStruct[]",
          "name": "Auctions",
          "type": "tuple[]"
        }
      ],
      "stateMutability": "view",
      "type": "function"
    },
    {
      "inputs": [],
      "name": "getMyAuctions",
      "outputs": [
        {
          "components": [
            {
              "internalType": "string",
              "name": "name",
              "type": "string"
            },
            {
              "internalType": "string",
              "name": "description",
              "type": "string"
            },
            {
              "internalType": "string",
              "name": "image",
              "type": "string"
            },
            {
              "internalType": "uint256",
              "name": "tokenId",
              "type": "uint256"
            },
            {
              "internalType": "address",
              "name": "seller",
              "type": "address"
            },
            {
              "internalType": "address",
              "name": "owner",
              "type": "address"
            },
            {
              "internalType": "address",
              "name": "winner",
              "type": "address"
            },
            {
              "internalType": "uint256",
              "name": "price",
              "type": "uint256"
            },
            {
              "internalType": "bool",
              "name": "sold",
              "type": "bool"
            },
            {
              "internalType": "bool",
              "name": "live",
              "type": "bool"
            },
            {
              "internalType": "bool",
              "name": "biddable",
              "type": "bool"
            },
            {
              "internalType": "uint256",
              "name": "bids",
              "type": "uint256"
            },
            {
              "internalType": "uint256",
              "name": "duration",
              "type": "uint256"
            }
          ],
          "internalType": "struct Auction.AuctionStruct[]",
          "name": "Auctions",
          "type": "tuple[]"
        }
      ],
      "stateMutability": "view",
      "type": "function"
    },
    {
      "inputs": [
        {
          "internalType": "address",
          "name": "owner",
          "type": "address"
        },
        {
          "internalType": "address",
          "name": "operator",
          "type": "address"
        }
      ],
      "name": "isApprovedForAll",
      "outputs": [
        {
          "internalType": "bool",
          "name": "",
          "type": "bool"
        }
      ],
      "stateMutability": "view",
      "type": "function"
    },
    {
      "inputs": [],
      "name": "name",
      "outputs": [
        {
          "internalType": "string",
          "name": "",
          "type": "string"
        }
      ],
      "stateMutability": "view",
      "type": "function"
    },
    {
      "inputs": [
        {
          "internalType": "uint256",
          "name": "tokenId",
          "type": "uint256"
        },
        {
          "internalType": "bool",
          "name": "biddable",
          "type": "bool"
        },
        {
          "internalType": "uint256",
          "name": "sec",
          "type": "uint256"
        },
        {
          "internalType": "uint256",
          "name": "min",
          "type": "uint256"
        },
        {
          "internalType": "uint256",
          "name": "hour",
          "type": "uint256"
        },
        {
          "internalType": "uint256",
          "name": "day",
          "type": "uint256"
        }
      ],
      "name": "offerAuction",
      "outputs": [],
      "stateMutability": "nonpayable",
      "type": "function"
    },
    {
      "inputs": [
        {
          "internalType": "uint256",
          "name": "tokenId",
          "type": "uint256"
        }
      ],
      "name": "ownerOf",
      "outputs": [
        {
          "internalType": "address",
          "name": "",
          "type": "address"
        }
      ],
      "stateMutability": "view",
      "type": "function"
    },
    {
      "inputs": [
        {
          "internalType": "uint256",
          "name": "tokenId",
          "type": "uint256"
        }
      ],
      "name": "placeBid",
      "outputs": [],
      "stateMutability": "payable",
      "type": "function"
    },
    {
      "inputs": [
        {
          "internalType": "address",
          "name": "from",
          "type": "address"
        },
        {
          "internalType": "address",
          "name": "to",
          "type": "address"
        },
        {
          "internalType": "uint256",
          "name": "tokenId",
          "type": "uint256"
        }
      ],
      "name": "safeTransferFrom",
      "outputs": [],
      "stateMutability": "nonpayable",
      "type": "function"
    },
    {
      "inputs": [
        {
          "internalType": "address",
          "name": "from",
          "type": "address"
        },
        {
          "internalType": "address",
          "name": "to",
          "type": "address"
        },
        {
          "internalType": "uint256",
          "name": "tokenId",
          "type": "uint256"
        },
        {
          "internalType": "bytes",
          "name": "data",
          "type": "bytes"
        }
      ],
      "name": "safeTransferFrom",
      "outputs": [],
      "stateMutability": "nonpayable",
      "type": "function"
    },
    {
      "inputs": [
        {
          "internalType": "address",
          "name": "operator",
          "type": "address"
        },
        {
          "internalType": "bool",
          "name": "approved",
          "type": "bool"
        }
      ],
      "name": "setApprovalForAll",
      "outputs": [],
      "stateMutability": "nonpayable",
      "type": "function"
    },
    {
      "inputs": [
        {
          "internalType": "uint256",
          "name": "_price",
          "type": "uint256"
        }
      ],
      "name": "setListingPrice",
      "outputs": [],
      "stateMutability": "nonpayable",
      "type": "function"
    },
    {
      "inputs": [
        {
          "internalType": "bytes4",
          "name": "interfaceId",
          "type": "bytes4"
        }
      ],
      "name": "supportsInterface",
      "outputs": [
        {
          "internalType": "bool",
          "name": "",
          "type": "bool"
        }
      ],
      "stateMutability": "view",
      "type": "function"
    },
    {
      "inputs": [],
      "name": "symbol",
      "outputs": [
        {
          "internalType": "string",
          "name": "",
          "type": "string"
        }
      ],
      "stateMutability": "view",
      "type": "function"
    },
    {
      "inputs": [
        {
          "internalType": "uint256",
          "name": "tokenId",
          "type": "uint256"
        }
      ],
      "name": "tokenURI",
      "outputs": [
        {
          "internalType": "string",
          "name": "",
          "type": "string"
        }
      ],
      "stateMutability": "view",
      "type": "function"
    },
    {
      "inputs": [
        {
          "internalType": "address",
          "name": "from",
          "type": "address"
        },
        {
          "internalType": "address",
          "name": "to",
          "type": "address"
        },
        {
          "internalType": "uint256",
          "name": "tokenId",
          "type": "uint256"
        }
      ],
      "name": "transferFrom",
      "outputs": [],
      "stateMutability": "nonpayable",
      "type": "function"
    }
  ],
  "bytecode": "0x608060405265b5e620f480006009553480156200001b57600080fd5b5060405162003c2e38038062003c2e8339810160408190526200003e916200016d565b604080518082018252600e81526d41756374696f6e20546f6b656e7360901b602080830191825283518085019094526002845261105560f21b9084015281519192916200008e91600091620000c7565b508051620000a4906001906020840190620000c7565b5050600160065550600880546001600160a01b03191633179055600a55620001c4565b828054620000d59062000187565b90600052602060002090601f016020900481019282620000f9576000855562000144565b82601f106200011457805160ff191683800117855562000144565b8280016001018555821562000144579182015b828111156200014457825182559160200191906001019062000127565b506200015292915062000156565b5090565b5b8082111562000152576000815560010162000157565b6000602082840312156200018057600080fd5b5051919050565b600181811c908216806200019c57607f821691505b60208210811415620001be57634e487b7160e01b600052602260045260246000fd5b50919050565b613a5a80620001d46000396000f3fe6080604052600436106101815760003560e01c80637c726b69116100d1578063b3de019c1161008a578063c87b56dd11610064578063c87b56dd14610462578063db0bd5c914610482578063e985e9c514610497578063f5a06acf146104e057600080fd5b8063b3de019c1461040d578063b88d4fde1461042d578063bf65a3331461044d57600080fd5b80637c726b69146103635780638da5751c1461038357806395d89b41146103a55780639979ef45146103ba578063a22cb465146103cd578063a923f18c146103ed57600080fd5b806342842e0e1161013e57806370a082311161011857806370a08231146102e357806375b6a06e1461030357806378bd7935146103165780637b1541401461034357600080fd5b806342842e0e146102765780634fa7b507146102965780636352211e146102c357600080fd5b806301ffc9a71461018657806306fdde03146101bb578063081812fc146101dd578063095ea7b31461021557806312e855851461023757806323b872dd14610256575b600080fd5b34801561019257600080fd5b506101a66101a13660046131d5565b6104f3565b60405190151581526020015b60405180910390f35b3480156101c757600080fd5b506101d0610545565b6040516101b2919061324a565b3480156101e957600080fd5b506101fd6101f836600461325d565b6105d7565b6040516001600160a01b0390911681526020016101b2565b34801561022157600080fd5b50610235610230366004613292565b6105fe565b005b34801561024357600080fd5b506009545b6040519081526020016101b2565b34801561026257600080fd5b506102356102713660046132bc565b610719565b34801561028257600080fd5b506102356102913660046132bc565b61074a565b3480156102a257600080fd5b506102b66102b136600461325d565b610765565b6040516101b291906132f8565b3480156102cf57600080fd5b506101fd6102de36600461325d565b610817565b3480156102ef57600080fd5b506102486102fe366004613373565b610877565b61023561031136600461343a565b6108fd565b34801561032257600080fd5b5061033661033136600461325d565b610c1a565b6040516101b291906135ca565b34801561034f57600080fd5b5061023561035e3660046135dd565b610eda565b34801561036f57600080fd5b5061023561037e36600461325d565b61113b565b34801561038f57600080fd5b5061039861116a565b6040516101b291906135ff565b3480156103b157600080fd5b506101d061158a565b6102356103c836600461325d565b611599565b3480156103d957600080fd5b506102356103e8366004613671565b6117ca565b3480156103f957600080fd5b506102356104083660046136a4565b6117d9565b34801561041957600080fd5b506102356104283660046135dd565b611954565b34801561043957600080fd5b506102356104483660046136f2565b611a53565b34801561045957600080fd5b50610398611a85565b34801561046e57600080fd5b506101d061047d36600461325d565b611e2c565b34801561048e57600080fd5b50610398611ea0565b3480156104a357600080fd5b506101a66104b236600461376e565b6001600160a01b03918216600090815260056020908152604080832093909416825291909152205460ff1690565b6102356104ee36600461325d565b61224b565b60006001600160e01b031982166380ac58cd60e01b148061052457506001600160e01b03198216635b5e139f60e01b145b8061053f57506301ffc9a760e01b6001600160e01b03198316145b92915050565b60606000805461055490613798565b80601f016020809104026020016040519081016040528092919081815260200182805461058090613798565b80156105cd5780601f106105a2576101008083540402835291602001916105cd565b820191906000526020600020905b8154815290600101906020018083116105b057829003601f168201915b5050505050905090565b60006105e2826124bf565b506000908152600460205260409020546001600160a01b031690565b600061060982610817565b9050806001600160a01b0316836001600160a01b0316141561067c5760405162461bcd60e51b815260206004820152602160248201527f4552433732313a20617070726f76616c20746f2063757272656e74206f776e656044820152603960f91b60648201526084015b60405180910390fd5b336001600160a01b0382161480610698575061069881336104b2565b61070a5760405162461bcd60e51b815260206004820152603d60248201527f4552433732313a20617070726f76652063616c6c6572206973206e6f7420746f60448201527f6b656e206f776e6572206f7220617070726f76656420666f7220616c6c0000006064820152608401610673565b610714838361251e565b505050565b610723338261258c565b61073f5760405162461bcd60e51b8152600401610673906137d3565b61071483838361260b565b61071483838360405180602001604052806000815250611a53565b6060600d6000838152602001908152602001600020805480602002602001604051908101604052809291908181526020016000905b8282101561080c5760008481526020908190206040805160a0810182526004860290920180546001600160a01b03168352600180820154848601526002820154928401929092526003015460ff808216151560608501526101009091041615156080830152908352909201910161079a565b505050509050919050565b6000818152600260205260408120546001600160a01b03168061053f5760405162461bcd60e51b8152602060048201526018602482015277115490cdcc8c4e881a5b9d985b1a59081d1bdad95b88125160421b6044820152606401610673565b60006001600160a01b0382166108e15760405162461bcd60e51b815260206004820152602960248201527f4552433732313a2061646472657373207a65726f206973206e6f7420612076616044820152683634b21037bbb732b960b91b6064820152608401610673565b506001600160a01b031660009081526003602052604090205490565b61090561277c565b600081116109685760405162461bcd60e51b815260206004820152602a60248201527f53616c6573207072696365206d7573742062652067726561746572207468616e60448201526910181032ba3432b9399760b11b6064820152608401610673565b6009543410156109c95760405162461bcd60e51b815260206004820152602660248201527f5072696365206d75737420626520757020746f20746865206c697374696e6720604482015265383934b1b29760d11b6064820152608401610673565b6109d16127d6565b610a145760405162461bcd60e51b815260206004820152601460248201527321b7bab632103737ba1036b4b73a103a37b5b2b760611b6044820152606401610673565b6000610a1f60075490565b9050610a29613042565b60608101829052858152602081018590526040810184905260e08101839052610a556000808080612805565b610180820152336080820181905260a08201526000828152600b60209081526040909120825180518493610a8d9284929101906130cb565b506020828101518051610aa692600185019201906130cb565b5060408201518051610ac29160028401916020909101906130cb565b506060820151600382015560808201516004820180546001600160a01b03199081166001600160a01b039384161790915560a0840151600584018054831691841691909117905560c084015160068401805490921690831617905560e08301516007830155610100808401516008808501805461012088015161014089015161ffff1990921694151561ff001916949094179315159094029290921762ff00001916620100009315159390930292909217905561016084015160098085019190915561018090940151600a909301929092556000858152600c60205260409020805460ff1916600117905590549154610bbe9290911690612867565b604080513381526000602082018190528183018690526060820152905183917fa693a8f68fe4df789541ddd1b84d32ccaea90adddcc88406b4bbbf6466328d3c919081900360800190a25050610c146001600655565b50505050565b610c22613042565b6000828152600c602052604090205460ff16610c805760405162461bcd60e51b815260206004820152601860248201527f41756374696f6e6564204974656d206e6f7420666f756e6400000000000000006044820152606401610673565b6000828152600b60205260409081902081516101a08101909252805482908290610ca990613798565b80601f0160208091040260200160405190810160405280929190818152602001828054610cd590613798565b8015610d225780601f10610cf757610100808354040283529160200191610d22565b820191906000526020600020905b815481529060010190602001808311610d0557829003601f168201915b50505050508152602001600182018054610d3b90613798565b80601f0160208091040260200160405190810160405280929190818152602001828054610d6790613798565b8015610db45780601f10610d8957610100808354040283529160200191610db4565b820191906000526020600020905b815481529060010190602001808311610d9757829003601f168201915b50505050508152602001600282018054610dcd90613798565b80601f0160208091040260200160405190810160405280929190818152602001828054610df990613798565b8015610e465780601f10610e1b57610100808354040283529160200191610e46565b820191906000526020600020905b815481529060010190602001808311610e2957829003601f168201915b50505091835250506003820154602082015260048201546001600160a01b0390811660408301526005830154811660608301526006830154166080820152600782015460a0820152600882015460ff808216151560c08401526101008083048216151560e085015262010000909204161515908201526009820154610120820152600a909101546101409091015292915050565b6000828152600b60205260408120600a015490610ef990808080612805565b11610f3b5760405162461bcd60e51b815260206004820152601260248201527141756374696f6e207374696c6c204c69766560701b6044820152606401610673565b6000828152600b60205260409020600601546001600160a01b03163314610f9d5760405162461bcd60e51b81526020600482015260166024820152752cb7ba9030b932903737ba103a3432903bb4b73732b960511b6044820152606401610673565b6000828152600d6020526040902080546001919083908110610fc157610fc1613820565b60009182526020808320600492830201600301805461ff0019166101009515159590950294909417909355848252600b909252604081206007810154928101546006820180546001600160a01b031916905560088201805461ffff1916600117905560099091018290556001600160a01b03169061104190808080612805565b6000858152600b60205260408120600a908101929092559054606490611067908561384c565b611071919061386b565b6000868152600b60205260409020600501549091506110a2906001600160a01b031661109d838661388d565b612867565b6110ac8282612867565b6040516323b872dd60e01b8152306004820181905233602483015260448201879052906323b872dd90606401600060405180830381600087803b1580156110f257600080fd5b505af1158015611106573d6000803e3d6000fd5b5050506000868152600b6020526040902060050180546001600160a01b0319163317905550611134856128ce565b5050505050565b6008546001600160a01b031633146111655760405162461bcd60e51b8152600401610673906138a4565b600955565b6060600061117760075490565b90506000805b8281101561121157611193600080600080612805565b600b60006111a28460016138d1565b8152602001908152602001600020600a0154111580156111ec575033600b60006111cd8460016138d1565b81526020810191909152604001600020600601546001600160a01b0316145b156111ff57816111fb816138e9565b9250505b80611209816138e9565b91505061117d565b508067ffffffffffffffff81111561122b5761122b61338e565b60405190808252806020026020018201604052801561126457816020015b611251613042565b8152602001906001900390816112495790505b5092506000805b8381101561158357611281600080600080612805565b600b60006112908460016138d1565b8152602001908152602001600020600a0154111580156112da575033600b60006112bb8460016138d1565b81526020810191909152604001600020600601546001600160a01b0316145b1561157157600b60006112ee8360016138d1565b8152602001908152602001600020604051806101a001604052908160008201805461131890613798565b80601f016020809104026020016040519081016040528092919081815260200182805461134490613798565b80156113915780601f1061136657610100808354040283529160200191611391565b820191906000526020600020905b81548152906001019060200180831161137457829003601f168201915b505050505081526020016001820180546113aa90613798565b80601f01602080910402602001604051908101604052809291908181526020018280546113d690613798565b80156114235780601f106113f857610100808354040283529160200191611423565b820191906000526020600020905b81548152906001019060200180831161140657829003601f168201915b5050505050815260200160028201805461143c90613798565b80601f016020809104026020016040519081016040528092919081815260200182805461146890613798565b80156114b55780601f1061148a576101008083540402835291602001916114b5565b820191906000526020600020905b81548152906001019060200180831161149857829003601f168201915b50505091835250506003820154602082015260048201546001600160a01b0390811660408301526005830154811660608301526006830154166080820152600782015460a0820152600882015460ff808216151560c08401526101008083048216151560e085015262010000909204161515908201526009820154610120820152600a9091015461014090910152855186908490811061155757611557613820565b6020026020010181905250818061156d906138e9565b9250505b8061157b816138e9565b91505061126b565b5050505090565b60606001805461055490613798565b6000818152600b60205260409020600701543410156115f05760405162461bcd60e51b8152602060048201526013602482015272125b9cdd59999a58da595b9d08105b5bdd5b9d606a1b6044820152606401610673565b6115fe600080600080612805565b6000828152600b60205260409020600a0154116116555760405162461bcd60e51b815260206004820152601560248201527441756374696f6e206e6f7420617661696c61626c6560581b6044820152606401610673565b6000818152600b602052604090206008015462010000900460ff166116bc5760405162461bcd60e51b815260206004820152601860248201527f41756374696f6e206f6e6c7920666f722062696464696e6700000000000000006044820152606401610673565b6040805160a08101825260009181018290526060810182905260808101829052338152346020820152906116f290808080612805565b60408083019182526000848152600d6020908152828220805460018181018355918452828420875160049092020180546001600160a01b039092166001600160a01b0319909216919091178155828701519181019190915593516002850155606085015160039094018054608087015115156101000261ff00199615159690961661ffff199091161794909417909355848152600b909252812060090180549161179b836138e9565b9091555050506000908152600b6020526040902034600782015560060180546001600160a01b03191633179055565b6117d5338383612aaf565b5050565b6000868152600b60205260409020600501546001600160a01b031633146118125760405162461bcd60e51b8152600401610673906138a4565b6000868152600b6020526040902060090154156118715760405162461bcd60e51b815260206004820152601f60248201527f57696e6e65722073686f756c6420636c61696d207072697a65206669727374006044820152606401610673565b6000868152600b6020526040902060080154610100900460ff166118f95761189a3060016117ca565b6040516323b872dd60e01b8152336004820152306024820181905260448201889052906323b872dd90606401600060405180830381600087803b1580156118e057600080fd5b505af11580156118f4573d6000803e3d6000fd5b505050505b6000868152600b6020526040812060098101919091556008018054861515620100000262ffffff199091161761010017905561193784848484612805565b6000968752600b6020526040909620600a01959095555050505050565b6000828152600b60205260409020600501546001600160a01b0316331461198d5760405162461bcd60e51b8152600401610673906138a4565b6000828152600b60205260408120600a0154906119ac90808080612805565b116119ee5760405162461bcd60e51b815260206004820152601260248201527141756374696f6e207374696c6c204c69766560701b6044820152606401610673565b60008111611a3e5760405162461bcd60e51b815260206004820152601f60248201527f5072696365206d7573742062652067726561746572207468616e207a65726f006044820152606401610673565b6000918252600b602052604090912060070155565b611a5d338361258c565b611a795760405162461bcd60e51b8152600401610673906137d3565b610c1484848484612b7e565b60606000611a9260075490565b90506000805b82811015611af35733600b6000611ab08460016138d1565b81526020810191909152604001600020600501546001600160a01b03161415611ae15781611add816138e9565b9250505b80611aeb816138e9565b915050611a98565b508067ffffffffffffffff811115611b0d57611b0d61338e565b604051908082528060200260200182016040528015611b4657816020015b611b33613042565b815260200190600190039081611b2b5790505b5092506000805b838110156115835733600b6000611b658460016138d1565b81526020810191909152604001600020600501546001600160a01b03161415611e1a57600b6000611b978360016138d1565b8152602001908152602001600020604051806101a0016040529081600082018054611bc190613798565b80601f0160208091040260200160405190810160405280929190818152602001828054611bed90613798565b8015611c3a5780601f10611c0f57610100808354040283529160200191611c3a565b820191906000526020600020905b815481529060010190602001808311611c1d57829003601f168201915b50505050508152602001600182018054611c5390613798565b80601f0160208091040260200160405190810160405280929190818152602001828054611c7f90613798565b8015611ccc5780601f10611ca157610100808354040283529160200191611ccc565b820191906000526020600020905b815481529060010190602001808311611caf57829003601f168201915b50505050508152602001600282018054611ce590613798565b80601f0160208091040260200160405190810160405280929190818152602001828054611d1190613798565b8015611d5e5780601f10611d3357610100808354040283529160200191611d5e565b820191906000526020600020905b815481529060010190602001808311611d4157829003601f168201915b50505091835250506003820154602082015260048201546001600160a01b0390811660408301526005830154811660608301526006830154166080820152600782015460a0820152600882015460ff808216151560c08401526101008083048216151560e085015262010000909204161515908201526009820154610120820152600a90910154610140909101528551869084908110611e0057611e00613820565b60200260200101819052508180611e16906138e9565b9250505b80611e24816138e9565b915050611b4d565b6060611e37826124bf565b6000611e4e60408051602081019091526000815290565b90506000815111611e6e5760405180602001604052806000815250611e99565b80611e7884612bb1565b604051602001611e89929190613904565b6040516020818303038152906040525b9392505050565b60606000611ead60075490565b90506000805b82811015611f1057611ec9600080600080612805565b600b6000611ed88460016138d1565b8152602001908152602001600020600a01541115611efe5781611efa816138e9565b9250505b80611f08816138e9565b915050611eb3565b508067ffffffffffffffff811115611f2a57611f2a61338e565b604051908082528060200260200182016040528015611f6357816020015b611f50613042565b815260200190600190039081611f485790505b5092506000805b8381101561158357611f80600080600080612805565b600b6000611f8f8460016138d1565b8152602001908152602001600020600a0154111561223957600b6000611fb68360016138d1565b8152602001908152602001600020604051806101a0016040529081600082018054611fe090613798565b80601f016020809104026020016040519081016040528092919081815260200182805461200c90613798565b80156120595780601f1061202e57610100808354040283529160200191612059565b820191906000526020600020905b81548152906001019060200180831161203c57829003601f168201915b5050505050815260200160018201805461207290613798565b80601f016020809104026020016040519081016040528092919081815260200182805461209e90613798565b80156120eb5780601f106120c0576101008083540402835291602001916120eb565b820191906000526020600020905b8154815290600101906020018083116120ce57829003601f168201915b5050505050815260200160028201805461210490613798565b80601f016020809104026020016040519081016040528092919081815260200182805461213090613798565b801561217d5780601f106121525761010080835404028352916020019161217d565b820191906000526020600020905b81548152906001019060200180831161216057829003601f168201915b50505091835250506003820154602082015260048201546001600160a01b0390811660408301526005830154811660608301526006830154166080820152600782015460a0820152600882015460ff808216151560c08401526101008083048216151560e085015262010000909204161515908201526009820154610120820152600a9091015461014090910152855186908490811061221f5761221f613820565b60200260200101819052508180612235906138e9565b9250505b80612243816138e9565b915050611f6a565b61225361277c565b6000818152600b60205260409020600701543410156122aa5760405162461bcd60e51b8152602060048201526013602482015272125b9cdd59999a58da595b9d08105b5bdd5b9d606a1b6044820152606401610673565b6122b8600080600080612805565b6000828152600b60205260409020600a01541161230f5760405162461bcd60e51b815260206004820152601560248201527441756374696f6e206e6f7420617661696c61626c6560581b6044820152606401610673565b6000818152600b602052604090206008015462010000900460ff16156123775760405162461bcd60e51b815260206004820152601960248201527f41756374696f6e206f6e6c7920666f72207075726368617365000000000000006044820152606401610673565b6000818152600b60205260408120600481015460088201805461ffff1916600117905560099091018290556001600160a01b0316906123b890808080612805565b6000838152600b60205260408120600a9081019290925590546064906123de903461384c565b6123e8919061386b565b6000848152600b6020526040902060050154909150612414906001600160a01b031661109d833461388d565b61241e8282612867565b6000838152600b6020526040908190206003015490516323b872dd60e01b8152306004820181905233602483015260448201929092526323b872dd90606401600060405180830381600087803b15801561247757600080fd5b505af115801561248b573d6000803e3d6000fd5b5050506000848152600b6020526040902060050180546001600160a01b03191633179055506124bc91506128c79050565b50565b6000818152600260205260409020546001600160a01b03166124bc5760405162461bcd60e51b8152602060048201526018602482015277115490cdcc8c4e881a5b9d985b1a59081d1bdad95b88125160421b6044820152606401610673565b600081815260046020526040902080546001600160a01b0319166001600160a01b038416908117909155819061255382610817565b6001600160a01b03167f8c5be1e5ebec7d5bd14f71427d1e84f3dd0314c0f7b2291e5b200ac8c7c3b92560405160405180910390a45050565b60008061259883610817565b9050806001600160a01b0316846001600160a01b031614806125df57506001600160a01b0380821660009081526005602090815260408083209388168352929052205460ff165b806126035750836001600160a01b03166125f8846105d7565b6001600160a01b0316145b949350505050565b826001600160a01b031661261e82610817565b6001600160a01b0316146126445760405162461bcd60e51b815260040161067390613933565b6001600160a01b0382166126a65760405162461bcd60e51b8152602060048201526024808201527f4552433732313a207472616e7366657220746f20746865207a65726f206164646044820152637265737360e01b6064820152608401610673565b6126b38383836001612c4e565b826001600160a01b03166126c682610817565b6001600160a01b0316146126ec5760405162461bcd60e51b815260040161067390613933565b600081815260046020908152604080832080546001600160a01b03199081169091556001600160a01b0387811680865260038552838620805460001901905590871680865283862080546001019055868652600290945282852080549092168417909155905184937fddf252ad1be2c89b69c2b068fc378daa952ba7f163c4a11628f55a4df523b3ef91a4505050565b600260065414156127cf5760405162461bcd60e51b815260206004820152601f60248201527f5265656e7472616e637947756172643a207265656e7472616e742063616c6c006044820152606401610673565b6002600655565b60006127e6600780546001019055565b60006127f160075490565b90506127fd3382612cd6565b600191505090565b6000612814826201518061384c565b61282084610e1061384c565b61282b86603c61384c565b61283688600161384c565b61284090426138d1565b61284a91906138d1565b61285491906138d1565b61285e91906138d1565b95945050505050565b6000826001600160a01b03168260405160006040518083038185875af1925050503d80600081146128b4576040519150601f19603f3d011682016040523d82523d6000602084013e6128b9565b606091505b505090508061071457600080fd5b6001600655565b60005b6000828152600d6020526040902054811015612a97576000828152600d6020526040902080543391908390811061290a5761290a613820565b60009182526020909120600490910201546001600160a01b0316146129f6576000828152600d602052604090208054600191908390811061294d5761294d613820565b906000526020600020906004020160030160006101000a81548160ff0219169083151502179055506129f1600d6000848152602001908152602001600020828154811061299c5761299c613820565b60009182526020808320600490920290910154858352600d909152604090912080546001600160a01b0390921691849081106129da576129da613820565b906000526020600020906004020160010154612867565b612a43565b6000828152600d6020526040902080546001919083908110612a1a57612a1a613820565b906000526020600020906004020160030160016101000a81548160ff0219169083151502179055505b612a51600080600080612805565b6000838152600d60205260409020805483908110612a7157612a71613820565b600091825260209091206002600490920201015580612a8f816138e9565b9150506128d1565b506000818152600d602052604081206124bc9161314f565b816001600160a01b0316836001600160a01b03161415612b115760405162461bcd60e51b815260206004820152601960248201527f4552433732313a20617070726f766520746f2063616c6c6572000000000000006044820152606401610673565b6001600160a01b03838116600081815260056020908152604080832094871680845294825291829020805460ff191686151590811790915591519182527f17307eab39ab6107e8899845ad3d59bd9653f200f220920489ca2b5937696c31910160405180910390a3505050565b612b8984848461260b565b612b9584848484612e6f565b610c145760405162461bcd60e51b815260040161067390613978565b60606000612bbe83612f6a565b600101905060008167ffffffffffffffff811115612bde57612bde61338e565b6040519080825280601f01601f191660200182016040528015612c08576020820181803683370190505b5090508181016020015b600019016f181899199a1a9b1b9c1cb0b131b232b360811b600a86061a8153600a8504945084612c4157612c46565b612c12565b509392505050565b6001811115610c14576001600160a01b03841615612c94576001600160a01b03841660009081526003602052604081208054839290612c8e90849061388d565b90915550505b6001600160a01b03831615610c14576001600160a01b03831660009081526003602052604081208054839290612ccb9084906138d1565b909155505050505050565b6001600160a01b038216612d2c5760405162461bcd60e51b815260206004820181905260248201527f4552433732313a206d696e7420746f20746865207a65726f20616464726573736044820152606401610673565b6000818152600260205260409020546001600160a01b031615612d915760405162461bcd60e51b815260206004820152601c60248201527f4552433732313a20746f6b656e20616c7265616479206d696e746564000000006044820152606401610673565b612d9f600083836001612c4e565b6000818152600260205260409020546001600160a01b031615612e045760405162461bcd60e51b815260206004820152601c60248201527f4552433732313a20746f6b656e20616c7265616479206d696e746564000000006044820152606401610673565b6001600160a01b038216600081815260036020908152604080832080546001019055848352600290915280822080546001600160a01b0319168417905551839291907fddf252ad1be2c89b69c2b068fc378daa952ba7f163c4a11628f55a4df523b3ef908290a45050565b60006001600160a01b0384163b15612f6257604051630a85bd0160e11b81526001600160a01b0385169063150b7a0290612eb39033908990889088906004016139ca565b6020604051808303816000875af1925050508015612eee575060408051601f3d908101601f19168201909252612eeb91810190613a07565b60015b612f48573d808015612f1c576040519150601f19603f3d011682016040523d82523d6000602084013e612f21565b606091505b508051612f405760405162461bcd60e51b815260040161067390613978565b805181602001fd5b6001600160e01b031916630a85bd0160e11b149050612603565b506001612603565b60008072184f03e93ff9f4daa797ed6e38ed64bf6a1f0160401b8310612fa95772184f03e93ff9f4daa797ed6e38ed64bf6a1f0160401b830492506040015b6d04ee2d6d415b85acef81000000008310612fd5576d04ee2d6d415b85acef8100000000830492506020015b662386f26fc100008310612ff357662386f26fc10000830492506010015b6305f5e100831061300b576305f5e100830492506008015b612710831061301f57612710830492506004015b60648310613031576064830492506002015b600a831061053f5760010192915050565b604051806101a001604052806060815260200160608152602001606081526020016000815260200160006001600160a01b0316815260200160006001600160a01b0316815260200160006001600160a01b031681526020016000815260200160001515815260200160001515815260200160001515815260200160008152602001600081525090565b8280546130d790613798565b90600052602060002090601f0160209004810192826130f9576000855561313f565b82601f1061311257805160ff191683800117855561313f565b8280016001018555821561313f579182015b8281111561313f578251825591602001919060010190613124565b5061314b929150613170565b5090565b50805460008255600402906000526020600020908101906124bc9190613185565b5b8082111561314b5760008155600101613171565b5b8082111561314b5780546001600160a01b0319168155600060018201819055600282015560038101805461ffff19169055600401613186565b6001600160e01b0319811681146124bc57600080fd5b6000602082840312156131e757600080fd5b8135611e99816131bf565b60005b8381101561320d5781810151838201526020016131f5565b83811115610c145750506000910152565b600081518084526132368160208601602086016131f2565b601f01601f19169290920160200192915050565b602081526000611e99602083018461321e565b60006020828403121561326f57600080fd5b5035919050565b80356001600160a01b038116811461328d57600080fd5b919050565b600080604083850312156132a557600080fd5b6132ae83613276565b946020939093013593505050565b6000806000606084860312156132d157600080fd5b6132da84613276565b92506132e860208501613276565b9150604084013590509250925092565b602080825282518282018190526000919060409081850190868401855b8281101561336657815180516001600160a01b031685528681015187860152858101518686015260608082015115159086015260809081015115159085015260a09093019290850190600101613315565b5091979650505050505050565b60006020828403121561338557600080fd5b611e9982613276565b634e487b7160e01b600052604160045260246000fd5b600067ffffffffffffffff808411156133bf576133bf61338e565b604051601f8501601f19908116603f011681019082821181831017156133e7576133e761338e565b8160405280935085815286868601111561340057600080fd5b858560208301376000602087830101525050509392505050565b600082601f83011261342b57600080fd5b611e99838335602085016133a4565b6000806000806080858703121561345057600080fd5b843567ffffffffffffffff8082111561346857600080fd5b6134748883890161341a565b9550602087013591508082111561348a57600080fd5b6134968883890161341a565b945060408701359150808211156134ac57600080fd5b506134b98782880161341a565b949793965093946060013593505050565b60006101a082518185526134e08286018261321e565b915050602083015184820360208601526134fa828261321e565b91505060408301518482036040860152613514828261321e565b91505060608301516060850152608083015161353b60808601826001600160a01b03169052565b5060a083015161355660a08601826001600160a01b03169052565b5060c083015161357160c08601826001600160a01b03169052565b5060e083015160e0850152610100808401516135908287018215159052565b5050610120838101511515908501526101408084015115159085015261016080840151908501526101809283015192909301919091525090565b602081526000611e9960208301846134ca565b600080604083850312156135f057600080fd5b50508035926020909101359150565b6000602080830181845280855180835260408601915060408160051b870101925083870160005b8281101561365457603f198886030184526136428583516134ca565b94509285019290850190600101613626565b5092979650505050505050565b8035801515811461328d57600080fd5b6000806040838503121561368457600080fd5b61368d83613276565b915061369b60208401613661565b90509250929050565b60008060008060008060c087890312156136bd57600080fd5b863595506136cd60208801613661565b95989597505050506040840135936060810135936080820135935060a0909101359150565b6000806000806080858703121561370857600080fd5b61371185613276565b935061371f60208601613276565b925060408501359150606085013567ffffffffffffffff81111561374257600080fd5b8501601f8101871361375357600080fd5b613762878235602084016133a4565b91505092959194509250565b6000806040838503121561378157600080fd5b61378a83613276565b915061369b60208401613276565b600181811c908216806137ac57607f821691505b602082108114156137cd57634e487b7160e01b600052602260045260246000fd5b50919050565b6020808252602d908201527f4552433732313a2063616c6c6572206973206e6f7420746f6b656e206f776e6560408201526c1c881bdc88185c1c1c9bdd9959609a1b606082015260800190565b634e487b7160e01b600052603260045260246000fd5b634e487b7160e01b600052601160045260246000fd5b600081600019048311821515161561386657613866613836565b500290565b60008261388857634e487b7160e01b600052601260045260246000fd5b500490565b60008282101561389f5761389f613836565b500390565b602080825260139082015272556e617574686f72697a656420656e7469747960681b604082015260600190565b600082198211156138e4576138e4613836565b500190565b60006000198214156138fd576138fd613836565b5060010190565b600083516139168184602088016131f2565b83519083019061392a8183602088016131f2565b01949350505050565b60208082526025908201527f4552433732313a207472616e736665722066726f6d20696e636f72726563742060408201526437bbb732b960d91b606082015260800190565b60208082526032908201527f4552433732313a207472616e7366657220746f206e6f6e20455243373231526560408201527131b2b4bb32b91034b6b83632b6b2b73a32b960711b606082015260800190565b6001600160a01b03858116825284166020820152604081018390526080606082018190526000906139fd9083018461321e565b9695505050505050565b600060208284031215613a1957600080fd5b8151611e99816131bf56fea2646970667358221220e926f56cceb88fa4cf63d4e70fd0c5b9ac7df45c6b6fb915bbcd2e330a2c4f2d64736f6c634300080b0033",
  "linkReferences": {},
  "deployedLinkReferences": {}
}